:020000040000fa
:080000000002040000000000f2
:020000040000fa
:04000800fa020000f8
:020000040000fa
:04000c00fa020000f4
:020000040000fa
:04001000fa020000f0
:020000040000fa
:04001400fa020000ec
:020000040000fa
:04001800fa020000e8
:020000040000fa
:04001c00fa020000e4
:020000040000fa
:04002000fa020000e0
:020000040000fa
:04002400fa020000dc
:020000040000fa
:04002800fa020000d8
:020000040000fa
:04002c00fa020000d4
:020000040000fa
:04003000fa020000d0
:020000040000fa
:04003400fa020000cc
:020000040000fa
:04003800fa020000c8
:020000040000fa
:04003c00fa020000c4
:020000040000fa
:04004000fa020000c0
:020000040000fa
:04004400260300008f
:020000040000fa
:04004800fa020000b8
:020000040000fa
:04004c00fa020000b4
:020000040000fa
:04005000fa020000b0
:020000040000fa
:04005400fa020000ac
:020000040000fa
:04005800fa020000a8
:020000040000fa
:04005c003603000067
:020000040000fa
:04006000fa020000a0
:020000040000fa
:04006400fa0200009c
:020000040000fa
:04006800fa02000098
:020000040000fa
:04006c00fa02000094
:020000040000fa
:04007000fa02000090
:020000040000fa
:040074000c03000079
:020000040000fa
:04007800fa02000088
:020000040000fa
:04007c00fa02000084
:020000040000fa
:04008000fa02000080
:020000040000fa
:04008400fa0200007c
:020000040000fa
:04008800fa02000078
:020000040000fa
:04008c00fa02000074
:020000040000fa
:04009000fa02000070
:020000040000fa
:04009400fa0200006c
:020000040000fa
:04009800fa02000068
:020000040000fa
:04009c00fa02000064
:020000040000fa
:0400a000fa02000060
:020000040000fa
:0400a400fa0200005c
:020000040000fa
:0400a800fa02000058
:020000040000fa
:0400ac00fa02000054
:020000040000fa
:0400b000fa02000050
:020000040000fa
:0400b400fa0200004c
:020000040000fa
:0400b800fa02000048
:020000040000fa
:0400bc00fa02000044
:020000040000fa
:0400c000fa02000040
:020000040000fa
:0400c400fa0200003c
:020000040000fa
:0400c800fa02000038
:020000040000fa
:0400cc00fa02000034
:020000040000fa
:0400d000fa02000030
:020000040000fa
:0400d400fa0200002c
:020000040000fa
:0400d800fa02000028
:020000040000fa
:0400dc00fa02000024
:020000040000fa
:0400e000fa02000020
:020000040000fa
:0400e400fa0200001c
:020000040000fa
:0400e800fa02000018
:020000040000fa
:0400ec00fa02000014
:020000040000fa
:0400f000fa02000010
:020000040000fa
:0400f400fa0200000c
:020000040000fa
:0400f800fa02000008
:020000040000fa
:0400fc00fa02000004
:020000040000fa
:04010000fa020000ff
:020000040000fa
:04010400fa020000fb
:020000040000fa
:04010800fa020000f7
:020000040000fa
:04010c00fa020000f3
:020000040000fa
:04011000fa020000ef
:020000040000fa
:04011400fa020000eb
:020000040000fa
:04011800fa020000e7
:020000040000fa
:04011c00fa020000e3
:020000040000fa
:04012000fa020000df
:020000040000fa
:04012400fa020000db
:020000040000fa
:04012800fa020000d7
:020000040000fa
:04012c00fa020000d3
:020000040000fa
:04013000fa020000cf
:020000040000fa
:04013400fa020000cb
:020000040000fa
:04013800fa020000c7
:020000040000fa
:04013c00fa020000c3
:020000040000fa
:04014000fa020000bf
:020000040000fa
:04014400fa020000bb
:020000040000fa
:04014800fa020000b7
:020000040000fa
:04014c00fa020000b3
:020000040000fa
:04015000fa020000af
:020000040000fa
:04015400fa020000ab
:020000040000fa
:04015800fa020000a7
:020000040000fa
:04015c00fa020000a3
:020000040000fa
:04016000fa0200009f
:020000040000fa
:04016400fa0200009b
:020000040000fa
:04016800fa02000097
:020000040000fa
:04016c00fa02000093
:020000040000fa
:04017000fa0200008f
:020000040000fa
:04017400fa0200008b
:020000040000fa
:04017800fa02000087
:020000040000fa
:04017c00fa02000083
:020000040000fa
:04018000fa0200007f
:020000040000fa
:04018400fa0200007b
:020000040000fa
:04018800fa02000077
:020000040000fa
:04018c00fa02000073
:020000040000fa
:04019000fa0200006f
:020000040000fa
:04019400fa0200006b
:020000040000fa
:04019800fa02000067
:020000040000fa
:04019c00fa02000063
:020000040000fa
:0401a000fa0200005f
:020000040000fa
:0401a400fa0200005b
:020000040000fa
:0401a800fa02000057
:020000040000fa
:0401ac00fa02000053
:020000040000fa
:0401b000fa0200004f
:020000040000fa
:0401b400fa0200004b
:020000040000fa
:0401b800fa02000047
:020000040000fa
:0401bc00fa02000043
:020000040000fa
:0401c000fa0200003f
:020000040000fa
:0401c400fa0200003b
:020000040000fa
:0401c800fa02000037
:020000040000fa
:0401cc00fa02000033
:020000040000fa
:0401d000fa0200002f
:020000040000fa
:0401d400fa0200002b
:020000040000fa
:0401d800fa02000027
:020000040000fa
:0401dc00fa02000023
:020000040000fa
:0401e000fa0200001f
:020000040000fa
:0401e400fa0200001b
:020000040000fa
:0401e800fa02000017
:020000040000fa
:0401ec00fa02000013
:020000040000fa
:0401f000fa0200000f
:020000040000fa
:0401f400fa0200000b
:020000040000fa
:0401f800fa02000007
:020000040000fa
:0401fc00fa02000003
:020000040000fa
:04020000fa020000fe
:020000040000fa
:04020400fa020000fa
:020000040000fa
:04020800fa020000f6
:020000040000fa
:04020c00fa020000f2
:020000040000fa
:04021000fa020000ee
:020000040000fa
:04021400fa020000ea
:020000040000fa
:04021800fa020000e6
:020000040000fa
:04021c00fa020000e2
:020000040000fa
:04022000fa020000de
:020000040000fa
:04022400fa020000da
:020000040000fa
:04022800fa020000d6
:020000040000fa
:04022c00fa020000d2
:020000040000fa
:04023000fa020000ce
:020000040000fa
:04023400fa020000ca
:020000040000fa
:04023800fa020000c6
:020000040000fa
:04023c00fa020000c2
:020000040000fa
:04024000fa020000be
:020000040000fa
:04024400fa020000ba
:020000040000fa
:04024800fa020000b6
:020000040000fa
:04024c00fa020000b2
:020000040000fa
:04025000fa020000ae
:020000040000fa
:04025400fa020000aa
:020000040000fa
:04025800fa020000a6
:020000040000fa
:04025c00fa020000a2
:020000040000fa
:04026000fa0200009e
:020000040000fa
:04026400fa0200009a
:020000040000fa
:04026800fa02000096
:020000040000fa
:04026c00fa02000092
:020000040000fa
:04027000fa0200008e
:020000040000fa
:04027400fa0200008a
:020000040000fa
:04027800fa02000086
:020000040000fa
:04027c00fa02000082
:020000040000fa
:04028000fa0200007e
:020000040000fa
:04028400fa0200007a
:020000040000fa
:04028800fa02000076
:020000040000fa
:04028c00fa02000072
:020000040000fa
:04029000fa0200006e
:020000040000fa
:04029400fa0200006a
:020000040000fa
:04029800fa02000066
:020000040000fa
:04029c00fa02000062
:020000040000fa
:0402a000fa0200005e
:020000040000fa
:0402a400fa0200005a
:020000040000fa
:0402a800fa02000056
:020000040000fa
:0402ac00fa02000052
:020000040000fa
:0402b000fa0200004e
:020000040000fa
:0402b400fa0200004a
:020000040000fa
:0402b800fa02000046
:020000040000fa
:0402bc00fa02000042
:020000040000fa
:0402c000fa0200003e
:020000040000fa
:0402c400fa0200003a
:020000040000fa
:0402c800fa02000036
:020000040000fa
:0402cc00fa02000032
:020000040000fa
:0402d000fa0200002e
:020000040000fa
:0402d400fa0200002a
:020000040000fa
:0402d800fa02000026
:020000040000fa
:0402dc00fa02000022
:020000040000fa
:0402e000fa0200001e
:020000040000fa
:0402e400fa0200001a
:020000040000fa
:0402e800fa02000016
:020000040000fa
:0402ec00fa02000012
:020000040000fa
:0402f000fa0200000e
:020000040000fa
:0402f400fa0200000a
:020000040000fa
:0402f800fa02000006
:020000040000fa
:0402fc00fa02000002
:020000040000fa
:04030000fa020000fd
:020000040000fa
:04030400fa020000f9
:020000040000fa
:04030800fa020000f5
:020000040000fa
:04030c00fa020000f1
:020000040000fa
:04031000fa020000ed
:020000040000fa
:100400004f6d21000eff21000e018800000000004a
:10041000000020000000e000020032000001200087
:100420002002880014000700010107000000e0001e
:1004300003003a00e0d7220001002000020037004c
:100440000000200001002000810f70000100320038
:100450000f000700000020000000e0000200320052
:100460000000020000000000002202000000000066
:100470000040da000000fe00008020000000e000e4
:1004800002003200002020009001880000000600d9
:10049000a1028800800478000000eb001f003700f4
:1004a000e284440054a0b4009905ba00e2844400f8
:1004b00054a0b4009906ba00e284440054a0b400e9
:1004c0000006eb00476fde00fd07b200ae018800ba
:1004d000636ce10003003a000ad801000000eb0061
:1004e0000e003700606ce10008003a00004deb00a0
:1004f0000a05e800020039003420ec000af0a000f0
:100500008b05e900f9ff3e00040037006168e10057
:10051000010032000086eb000b00070019c7ba008b
:100520000e04e0001905ba0003003a000a00e000da
:10053000dbff3a0000000600fe07b200ae028800b2
:100540008a047800f5ff37000cd0a300e20f4d00bd
:100550001c00390089027800354dba000a05e80010
:10056000020039003420ec000af0a0008b05e900fd
:100570000f003200254dba000a05e80002003900dc
:100580003420ec000af0a0008b05e90008003200de
:100590000c00e0000600320015cdba000a05e800a4
:1005a000020039003420ec000af0a0008b05e900bd
:1005b0008984e80054a0b4000b00e000e2ff3a0098
:1005c000000006009902ba00055d78008b05e9007d
:1005d000f7ff3200c82ade00055d78008b05e900d0
:1005e000f3ff32000c00e000f1ff320019ddba0029
:1005f000eeff3700801f78000200fa002000200084
:10060000000f78001e0fe800004680000080fa000e
:100610004f00780000400600801f78000000fa00bc
:10062000b0708000700060000000e0000200320046
:1006300040b680000100370040b680000268a90083
:100640000080fa004f00780000400600801f78000c
:100650000000fa0010002000f0b4880000e8a900b3
:100660000080fa004f00780000400600809fbe0026
:10067000829fbe000800fa000018800000b58800c4
:1006800000b5800060b588001018800010b58800a3
:1006900010b5800070b588002018800030b5880043
:1006a0003018800020b5880040188000d0b4880041
:1006b000d0b480008000eb00008fbe000000eb0093
:1006c000200798001000200050b48800803e2000d1
:1006d000010020001e0178009e019000800f510053
:1006e000818f590004003600400620002007980042
:1006f0008a36ef000b0037000019200001002000af
:100700001e0178009e019000800f5100818f5900da
:100710000400360020032000200798000080eb0032
:1007200050b4880050b480000000e00003003a009c
:100730001000200030b488000700370050b480005b
:10074000e10f500003003a002000200030b4880080
:10075000010037008636ef0050188000e0b48800b2
:10076000e0b480008000eb00008fbe000000eb00d2
:10077000200798001000200060b48800803e200010
:10078000010020001e0178009e019000800f5100a2
:10079000818f590004003600400620002007980091
:1007a0008c36ef000b0037000019200001002000fc
:1007b0001e0178009e019000800f5100818f59002a
:1007c0000400360020032000200798000080eb0082
:1007d00060b488001e0078009e0090004e09dd0085
:1007e0004200de0000007100c208de003007980001
:1007f00060b48000e10f500003003a000080eb007d
:1008000060b488000500370060b48000e10f40004c
:1008100002003a001000200060b4880001a8a9007e
:100820000080fa004f01be004f00be0000400600ed
:0408300000000500bf
:020000040000fa
:10083400000000000102000003040000050600009f
:1008440006070000080900000a0b00000b0c00005a
:100854000d0e00000f100000111100001213000013
:10086400141500001616000017180000191a0000cd
:100874001a1b00001c1d00001e1f00001f2000008a
:100884002122000023230000242500002627000045
:1008940027280000292a00002b2b00002c2d000003
:1008a4002e2e00002f3000003132000032330000c1
:1008b4003435000035360000373800003839000080
:1008c4003a3b00003b3c00003d3e00003e3f000040
:1008d4004041000041420000434400004445000000
:1008e4004647000047480000494a00004a4b0000c0
:1008f4004c4c00004d4e00004f4f00005051000082
:100904005152000053540000545500005656000044
:1009140057580000585900005a5b00005b5c000007
:100924005d5d00005e5f00005f60000061610000cb
:100934006263000063640000656500006667000090
:1009440067680000696900006a6b00006b6c000056
:100954006d6d00006e6f00006f700000717100001b
:1009640072730000737400007475000076760000e2
:100974007778000078790000797a00007b7b0000aa
:100984007c7d00007d7e00007e7f00008080000072
:10099400818100008283000083840000848500003c
:1009a400868600008787000088890000898a000005
:1009b4008a8b00008b8c00008d8d00008e8e0000d1
:1009c4008f9000009091000091920000929300009b
:1009d4009394000095950000969600009797000068
:1009e40098980000999a00009a9b00009b9c000034
:1009f4009c9d00009d9e00009e9f00009fa0000003
:100a0400a1a10000a2a20000a3a30000a4a40000ce
:100a1400a5a50000a6a60000a7a70000a8a800009e
:100a2400a9a90000aaaa0000abab0000acac00006e
:100a3400adad0000aeae0000afaf0000b0b000003e
:100a4400b1b10000b2b20000b3b30000b3b400000f
:100a5400b4b50000b5b60000b6b70000b7b80000e2
:100a6400b8b90000b9ba0000baba0000bbbb0000b4
:100a7400bcbc0000bdbd0000bebe0000bebf000087
:100a8400bfc00000c0c10000c1c20000c2c200005b
:100a9400c3c30000c4c40000c5c50000c5c600002f
:100aa400c6c70000c7c70000c8c80000c9c9000005
:100ab400c9ca0000cacb0000cbcb0000cccc0000dc
:100ac400cdcd0000cdce0000cecf0000cfcf0000b2
:100ad400d0d00000d1d10000d1d20000d2d2000089
:100ae400d3d30000d4d40000d4d50000d5d5000061
:100af400d6d60000d6d70000d7d80000d8d800003a
:100b0400d9d90000d9da0000dada0000dbdb000012
:100b1400dbdc0000dcdc0000dddd0000ddde0000ed
:100b2400dede0000dfdf0000dfe00000e0e00000c8
:100b3400e1e10000e1e20000e2e20000e3e30000a2
:100b4400e3e40000e4e40000e4e50000e5e500007f
:100b5400e6e60000e6e70000e7e70000e7e800005b
:100b6400e8e80000e9e90000e9e90000eaea000039
:100b7400eaeb0000ebeb0000ebec0000ecec000017
:100b8400eded0000eded0000eeee0000eeee0000f5
:100b9400efef0000efef0000f0f00000f0f00000d5
:100ba400f1f10000f1f10000f2f20000f2f20000b5
:100bb400f3f30000f3f30000f4f40000f4f4000095
:100bc400f5f50000f5f50000f5f60000f6f6000076
:100bd400f6f70000f7f70000f7f70000f8f8000058
:100be400f8f80000f8f90000f9f90000f9fa00003b
:100bf400fafa0000fafa0000fbfb0000fbfb00001d
:100c0400fbfb0000fcfc0000fcfc0000fcfd000001
:100c1400fdfd0000fdfd0000fefe0000fefe0000e4
:100c2400fefe0000ffff0000ffff0000ffff0000ca
:100c34000002000004060000080a00000c0e000078
:100c44001012000014160000181a00001c1e0000e8
:100c54001f21000023250000272900002b2c000061
:100c64002e3000003234000035370000393b0000dc
:100c74003c3e00004041000043450000464800005f
:100c84004a4b00004d4e00005052000053550000e6
:100c940056580000595b00005c5e00005f61000074
:100ca4006264000065660000686900006b6c000007
:100cb4006d6f0000707100007374000075770000a0
:100cc400787900007b7c00007d7e0000808100003c
:100cd400828300008586000087880000898a0000de
:100ce4008c8d00008e8f0000909100009293000084
:100cf4009496000097980000999a00009b9c00002d
:100d04009d9e00009fa00000a1a20000a3a40000db
:100d1400a5a60000a7a80000a8a90000aaab00008f
:100d2400acad0000aeaf0000b0b00000b1b2000046
:100d3400b3b40000b5b60000b6b70000b8b90000ff
:100d4400baba0000bbbc0000bdbd0000bebf0000bd
:100d5400c0c00000c1c20000c2c30000c4c500007e
:100d6400c5c60000c7c70000c8c90000c9ca000042
:100d7400cacb0000cccc0000cdce0000cecf00000a
:100d8400cfd00000d0d10000d2d20000d3d30000d5
:100d9400d4d40000d5d50000d6d70000d7d80000a1
:100da400d8d90000d9da0000dadb0000dbdb000070
:100db400dcdc0000dddd0000dede0000dfdf000043
:100dc400e0e00000e0e10000e1e20000e2e2000017
:100dd400e3e30000e4e40000e4e50000e5e60000ed
:100de400e6e60000e7e70000e7e80000e8e80000c6
:100df400e9e90000e9ea0000eaea0000ebeb0000a0
:100e0400ebec0000ecec0000eced0000eded00007c
:100e1400eeee0000eeee0000efef0000efef00005a
:100e2400f0f00000f0f00000f1f10000f1f100003a
:100e3400f2f20000f2f20000f2f30000f3f300001b
:100e4400f3f40000f4f40000f4f40000f5f50000fd
:100e5400f5f50000f5f50000f6f60000f6f60000e2
:100e6400f6f60000f7f70000f7f70000f7f70000c8
:100e7400f8f80000f8f80000f8f80000f8f90000ad
:100e8400f9f90000f9f90000f9f90000f9fa000095
:100e9400fafa0000fafa0000fafa0000fafa00007e
:100ea400fbfb0000fbfb0000fbfb0000fbfb000066
:100eb400fbfb0000fcfc0000fcfc0000fcfc000050
:100ec400fcfc0000fcfc0000fcfc0000fcfd00003d
:100ed400fdfd0000fdfd0000fdfd0000fdfd000026
:100ee400fdfd0000fdfd0000fdfd0000fdfe000015
:100ef400fefe0000fefe0000fefe0000fefe0000fe
:100f0400fefe0000fefe0000fefe0000fefe0000ed
:100f1400fefe0000fefe0000fefe0000fefe0000dd
:100f2400ffff0000ffff0000ffff0000ffff0000c5
:100f3400ffff0000ffff0000ffff0000ffff0000b5
:100f4400ffff0000ffff0000ffff0000ffff0000a5
:100f5400ffff0000ffff0000ffff0000ffff000095
:100f6400ffff0000ffff0000ffff0000ffff000085
:100f7400ffff0000ffff0000ffff0000ffff000075
:100f8400ffff0000ffff0000ffff0000ffff000065
:100f9400ffff0000ffff0000ffff0000ffff000055
:100fa400ffff0000ffff0000ffff0000ffff000045
:100fb400ffff0000ffff0000ffff0000ffff000035
:100fc400ffff0000ffff0000ffff0000ffff000025
:100fd400ffff0000ffff0000ffff0000ffff000015
:100fe400ffff0000ffff0000ffff0000ffff000005
:100ff400ffff0000ffff0000ffff0000ffff0000f5
:10100400ffff0000ffff0000ffff0000ffff0000e4
:10101400ffff0000ffff0000ffff0000ffff0000d4
:10102400ffff0000ffff0000ffff0000ffff0000c4
:101034000000000001020000030400000506000097
:1010440006070000080900000a0b00000b0c000052
:101054000d0e00000f10000011110000121300000b
:10106400141500001616000017180000191a0000c5
:101074001a1b00001c1d00001e1f00001f20000082
:10108400212200002323000024250000262700003d
:1010940027280000292a00002b2b00002c2d0000fb
:1010a4002e2e00002f3000003132000032330000b9
:1010b4003435000035360000373800003839000078
:1010c4003a3b00003b3c00003d3e00003e3f000038
:1010d40040410000414200004344000044450000f8
:1010e4004647000047480000494a00004a4b0000b8
:1010f4004c4c00004d4e00004f4f0000505100007a
:10110400515200005354000054550000565600003c
:1011140057580000585900005a5b00005b5c0000ff
:101124005d5d00005e5f00005f60000061610000c3
:101134006263000063640000656500006667000088
:1011440067680000696900006a6b00006b6c00004e
:101154006d6d00006e6f00006f7000007171000013
:1011640072730000737400007475000076760000da
:101174007778000078790000797a00007b7b0000a2
:101184007c7d00007d7e00007e7f0000808000006a
:101194008181000082830000838400008485000034
:1011a400868600008787000088890000898a0000fd
:1011b4008a8b00008b8c00008d8d00008e8e0000c9
:1011c4008f90000090910000919200009293000093
:1011d4009394000095950000969600009797000060
:1011e40098980000999a00009a9b00009b9c00002c
:1011f4009c9d00009d9e00009e9f00009fa00000fb
:10120400a1a10000a2a20000a3a30000a4a40000c6
:10121400a5a50000a6a60000a7a70000a8a8000096
:10122400a9a90000aaaa0000abab0000acac000066
:10123400adad0000aeae0000afaf0000b0b0000036
:10124400b1b10000b2b20000b3b30000b3b4000007
:10125400b4b50000b5b60000b6b70000b7b80000da
:10126400b8b90000b9ba0000baba0000bbbb0000ac
:10127400bcbc0000bdbd0000bebe0000bebf00007f
:10128400bfc00000c0c10000c1c20000c2c2000053
:10129400c3c30000c4c40000c5c50000c5c6000027
:1012a400c6c70000c7c70000c8c80000c9c90000fd
:1012b400c9ca0000cacb0000cbcb0000cccc0000d4
:1012c400cdcd0000cdce0000cecf0000cfcf0000aa
:1012d400d0d00000d1d10000d1d20000d2d2000081
:1012e400d3d30000d4d40000d4d50000d5d5000059
:1012f400d6d60000d6d70000d7d80000d8d8000032
:10130400d9d90000d9da0000dada0000dbdb00000a
:10131400dbdc0000dcdc0000dddd0000ddde0000e5
:10132400dede0000dfdf0000dfe00000e0e00000c0
:10133400e1e10000e1e20000e2e20000e3e300009a
:10134400e3e40000e4e40000e4e50000e5e5000077
:10135400e6e60000e6e70000e7e70000e7e8000053
:10136400e8e80000e9e90000e9e90000eaea000031
:10137400eaeb0000ebeb0000ebec0000ecec00000f
:10138400eded0000eded0000eeee0000eeee0000ed
:10139400efef0000efef0000f0f00000f0f00000cd
:1013a400f1f10000f1f10000f2f20000f2f20000ad
:1013b400f3f30000f3f30000f4f40000f4f400008d
:1013c400f5f50000f5f50000f5f60000f6f600006e
:1013d400f6f70000f7f70000f7f70000f8f8000050
:1013e400f8f80000f8f90000f9f90000f9fa000033
:1013f400fafa0000fafa0000fbfb0000fbfb000015
:10140400fbfb0000fcfc0000fcfc0000fcfd0000f9
:10141400fdfd0000fdfd0000fefe0000fefe0000dc
:10142400fefe0000ffff0000ffff0000ffff0000c2
:101434000002000004060000080a00000c0e000070
:101444001012000014160000181a00001c1e0000e0
:101454001f21000023250000272900002b2c000059
:101464002e3000003234000035370000393b0000d4
:101474003c3e000040410000434500004648000057
:101484004a4b00004d4e00005052000053550000de
:1014940056580000595b00005c5e00005f6100006c
:1014a4006264000065660000686900006b6c0000ff
:1014b4006d6f000070710000737400007577000098
:1014c400787900007b7c00007d7e00008081000034
:1014d400828300008586000087880000898a0000d6
:1014e4008c8d00008e8f000090910000929300007c
:1014f4009496000097980000999a00009b9c000025
:101504009d9e00009fa00000a1a20000a3a40000d3
:10151400a5a60000a7a80000a8a90000aaab000087
:10152400acad0000aeaf0000b0b00000b1b200003e
:10153400b3b40000b5b60000b6b70000b8b90000f7
:10154400baba0000bbbc0000bdbd0000bebf0000b5
:10155400c0c00000c1c20000c2c30000c4c5000076
:10156400c5c60000c7c70000c8c90000c9ca00003a
:10157400cacb0000cccc0000cdce0000cecf000002
:10158400cfd00000d0d10000d2d20000d3d30000cd
:10159400d4d40000d5d50000d6d70000d7d8000099
:1015a400d8d90000d9da0000dadb0000dbdb000068
:1015b400dcdc0000dddd0000dede0000dfdf00003b
:1015c400e0e00000e0e10000e1e20000e2e200000f
:1015d400e3e30000e4e40000e4e50000e5e60000e5
:1015e400e6e60000e7e70000e7e80000e8e80000be
:1015f400e9e90000e9ea0000eaea0000ebeb000098
:10160400ebec0000ecec0000eced0000eded000074
:10161400eeee0000eeee0000efef0000efef000052
:10162400f0f00000f0f00000f1f10000f1f1000032
:10163400f2f20000f2f20000f2f30000f3f3000013
:10164400f3f40000f4f40000f4f40000f5f50000f5
:10165400f5f50000f5f50000f6f60000f6f60000da
:10166400f6f60000f7f70000f7f70000f7f70000c0
:10167400f8f80000f8f80000f8f80000f8f90000a5
:10168400f9f90000f9f90000f9f90000f9fa00008d
:10169400fafa0000fafa0000fafa0000fafa000076
:1016a400fbfb0000fbfb0000fbfb0000fbfb00005e
:1016b400fbfb0000fcfc0000fcfc0000fcfc000048
:1016c400fcfc0000fcfc0000fcfc0000fcfd000035
:1016d400fdfd0000fdfd0000fdfd0000fdfd00001e
:1016e400fdfd0000fdfd0000fdfd0000fdfe00000d
:1016f400fefe0000fefe0000fefe0000fefe0000f6
:10170400fefe0000fefe0000fefe0000fefe0000e5
:10171400fefe0000fefe0000fefe0000fefe0000d5
:10172400ffff0000ffff0000ffff0000ffff0000bd
:10173400ffff0000ffff0000ffff0000ffff0000ad
:10174400ffff0000ffff0000ffff0000ffff00009d
:10175400ffff0000ffff0000ffff0000ffff00008d
:10176400ffff0000ffff0000ffff0000ffff00007d
:10177400ffff0000ffff0000ffff0000ffff00006d
:10178400ffff0000ffff0000ffff0000ffff00005d
:10179400ffff0000ffff0000ffff0000ffff00004d
:1017a400ffff0000ffff0000ffff0000ffff00003d
:1017b400ffff0000ffff0000ffff0000ffff00002d
:1017c400ffff0000ffff0000ffff0000ffff00001d
:1017d400ffff0000ffff0000ffff0000ffff00000d
:1017e400ffff0000ffff0000ffff0000ffff0000fd
:1017f400ffff0000ffff0000ffff0000ffff0000ed
:10180400ffff0000ffff0000ffff0000ffff0000dc
:10181400ffff0000ffff0000ffff0000ffff0000cc
:10182400ffff0000ffff0000ffff0000ffff0000bc
:020000040000fa
:10183400cccc0000005900004ce900008a7d000077
:101844009715000050b100009550000045f30000ca
:10185400409900006b420000a6ee0000d89d0000f5
:10186400e44f0000b204000028bc00002e76000003
:10187400ae32000090f10000bfb2000026760000f6
:10188400b13b00004e030000e8cc00006f9800005c
:10189400d0650000fb340000e005000070d80000b3
:1018a4009aac000051820000865900002c320000de
:1018b400370c000098e7000045c4000032a2000085
:1018c400538100009d610000064300008425000050
:1018d4000d09000097ed00001ad300008cb9000038
:1018e400e6a000001e8900002e7200000d5c0000be
:1018f400b44600001d320000401e0000160b00001c
:101904009af80000c5e6000091d50000f9c4000073
:10191400f7b4000086a50000a196000042880000ec
:10192400667a0000066d000020600000af530000de
:10193400ae470000193c0000ee30000027260000ee
:10194400c21b0000bb1100000e080000bafe00001c
:10195400b9f500000aed0000aae4000095dc0000df
:10196400cad4000045cd000004c6000004bf000036
:1019740044b80000c1b1000079ab00006aa50000c2
:10198400919f0000ee9900007d9400003e8f0000be
:101994002e8a00004c850000968000000b7c00001d
:1019a400a97700006e7300005a6f00006a6b000094
:1019b4009f670000f56300006d600000055d000096
:1019c400bb5900008f560000805300008d5000006a
:1019d400b44d0000f54a00004f480000c145000026
:1019e4004a430000e94000009e3e0000673c0000be
:1019f400453a000036380000393600004f34000004
:101a040075320000ad300000f42e00004c2d0000b3
:101a1400b22b0000272a0000a92800003927000063
:101a2400d72500008024000036230000f7210000a1
:101a3400c42000009c1f00007e1e00006a1d0000e0
:101a4400601c00005f1b0000671a00007919000089
:101a540092180000b4170000dd1600000e160000f6
:101a64004715000086140000cd1300001a1300006f
:101a74006d120000c6110000251100008a1000003c
:101a8400f40f0000640f0000d90e0000530e000094
:101a9400d10d0000540d0000db0c0000670c0000a9
:101aa400f70b00008b0b0000220b0000bd0a0000a6
:101ab4005c0a0000fe090000a40900004d090000b2
:101ac400f9080000a7080000590800000e080000eb
:101ad400c50700007e0700003b070000f906000070
:101ae400ba0600007d060000430600000a06000056
:101af400d30500009f0500006c0500003b050000b5
:101b04000b050000de040000b2040000870400009e
:101b14005e0400003704000010040000ec03000021
:101b2400c8030000a603000085030000650300004d
:101b340046030000290300000c030000f10200002a
:101b4400d6020000bc020000a30200008c020000c8
:101b5400750200005e020000490200003402000029
:101b6400200200000d020000fa010000e90100005b
:101b7400d7010000c7010000b6010000a701000062
:101b8400980100008a0100007c0100006e01000041
:101b94006101000055010000490100003d01000001
:101ba40032010000270100001d01000012010000a5
:101bb40009010000ff000000f6000000ee00000034
:101bc400e5000000dd000000d5000000ce000000ac
:101bd400c6000000bf000000b9000000b200000011
:101be400ac000000a6000000a00000009a00000065
:101bf400950000008f0000008a00000085000000ae
:101c0400810000007c0000007800000073000000e8
:101c14006f0000006b00000068000000640000001a
:101c2400600000005d0000005a0000005600000043
:020000040000fa
:101c34000c0000000c0000000b0000000b00000072
:101c44000b0000000a0000000a0000000900000068
:101c5400090000000900000008000000080000005e
:101c64000800000008000000070000000700000052
:101c74000700000006000000060000000600000047
:101c8400060000000600000005000000050000003a
:101c9400050000000500000005000000040000002d
:101ca4000400000004000000040000000400000020
:101cb4000400000003000000030000000300000013
:101cc4000300000003000000030000000300000004
:101cd40003000000020000000200000002000000f7
:101ce40002000000020000000200000002000000e8
:101cf40002000000020000000200000002000000d8
:101d040001000000010000000100000001000000cb
:101d140001000000010000000100000001000000bb
:101d240001000000010000000100000001000000ab
:101d3400010000000100000001000000010000009b
:101d4400010000000100000001000000000000008c
:101d5400000000000000000000000000000000007f
:101d6400000000000000000000000000000000006f
:101d7400000000000000000000000000000000005f
:101d8400000000000000000000000000000000004f
:020000040000fa
:102034000000fa002023ef002223ef002423ef0006
:102044000080fa00000006000000fa002023ef00e0
:102054002223ef002423ef002343a8002043a800f9
:1020640001198000000e2000010070000019880092
:102074002119800000f0210001007000201988005f
:10208400f0c3b30024e3b700000ea8000e0ea800ae
:102094003003a8001119800030f82f000080600080
:1020a40010198800002ea8000e2ea8003023a800c6
:1020b400101980004200de007f4060000040e8000c
:1020c4007f4060000080fb007f0060004200dd0074
:1020d4001219800031f82f008100610001007000a6
:1020e40010198800140ea800220ea8003043a8007e
:1020f400101980004200de007f4060000040e800cc
:102104007f4060000080fb007f0060004200dd0033
:102114001219800031f82f00810061000100700065
:1021240010198800222ea800142ea8003063a800dd
:10213400101980004200de007f4060000040e8008b
:102144007f4060000080fb007f0060004200dd00f3
:102154001219800031f82f00810061000100700025
:1021640010198800224ea800144ea8003083a8003d
:10217400101980004200de007f4060000040e8004b
:102184007f4060000080fb007f0060004200dd00b3
:102194001219800031f82f008100610001007000e5
:1021a40010198800226ea800146ea80030a3a8009d
:1021b400101980004200de007f4060000040e8000b
:1021c4007f4060000080fb007f0060004200dd0073
:1021d4001219800031f82f008100610001007000a5
:1021e4001019880001a8a90021a8a80021e3a800cb
:1021f4000080fa00000006000600fa00000f7800d4
:10220400110798002207980014eea900150ea900e2
:10221400152ea9004222ef001112800030fe2f007b
:10222400008060008001b300101288001112800049
:10223400c0ff2f00008060000010a0001012880072
:102244004302a80042a2a80041e2a8000080fa00cc
:10225400000006000200fa00000f78001e0078005b
:102264008000eb00510898001e007800d008900010
:102274001e007800410898001e007800c0089000f5
:102284001e007800210898001e007800a008900025
:102294001e007800310898001e0178006000b80024
:1022a40000099800110998001e007800e10420003c
:1022b400110098001e007800b10120002100980050
:1022c4001e007800100090004000dd008000eb004c
:1022d4001e01780040019800510198001e0078000a
:1022e400200090004200dd008000eb001e01780019
:1022f40060019800710198000080fa000000060057
:102304000200fa00000f78001e0078001000780028
:102314000000e00008003a001e00780011002000d0
:10232400310098001e0178006000b8000009980090
:1023340011099800030037001e00780011002000e6
:10234400310098000080fa00000006000200fa0044
:10235400000f78001e00780010007800e10f500094
:1023640003003a001e00780041002000310098006c
:102374000080fa00000006000200fa00000f780056
:102384001e0078008000eb00210898001e007800f1
:102394008000eb00310898001e00780030009000a7
:1023a400e20f500055003200e20f500005003e00dd
:1023b4000000e00008003200e10f50000d00320080
:1023c400d4003700e30f500087003200e40f5000c0
:1023d40095003200cf0037001e0078008000eb002b
:1023e400210898001e0078008000eb003108980056
:1023f400c80037001e007800000990009009900082
:102404001e007800d00090004000900002004000c0
:10241400838048001e017800000998001109980083
:102424001e0078000009900090099000f0ff2f0032
:10243400f10f2000800f5100818f590015003600e4
:102444001e007800100078000000e00009003a0047
:102454001e00780021002000310098001e01780041
:10246400f0ff2f00f10f20000009980011099800d7
:10247400080037001e007800310020003100980069
:102484001e017800f0ff2f00f10f200000099800d2
:10249400110998001e007800900890000008900030
:1024a4004809dd004800de0000007100c808de00b5
:1024b400800078001e007800310898001e00780023
:1024c40090089000000890004109dd004f00de00f4
:1024d40000007100cf08de00a24128000000410086
:1024e400104078000080fb004800dd008000780088
:1024f4001e00780031089800860037001e0078001e
:1025040000099000900990001e007800f0009000ef
:102514006000900000005100818059001e01780085
:1025240000099800110998001e0078000009900025
:10253400900990001e007800f00090006000900068
:10254400800f5100818f5900070031001e0178006f
:102554006000b80000099800110998001e00780076
:102564008000eb00310098001e0078009008900075
:10257400000890004809dd004800de0000007100fa
:10258400c808de00800078001e007800310898003a
:102594001e00780090089000000890004109dd00ba
:1025a4004f00de0000007100cf08de00f21f2000a3
:1025b400030020000000510081805900a26128001e
:1025c40000004100104078000080fb00f10f200063
:1025d400008050004800dd00800078001e00780074
:1025e400310898004b0037001e017800f0ff2f00df
:1025f400f10f200000099800110998001e007800ce
:1026040090089000000890004809dd004800de00b2
:1026140000007100c808de00800078001e00780009
:10262400310898003b0037001e0078000009900034
:10263400900990001e007800f00090006000900067
:1026440000005100818059001e01780000099800a3
:10265400110998001e00780000099000900990006c
:102664001e007800f000900060009000800f510080
:10267400818f5900070031001e0178006000b80006
:1026840000099800110998001e0078008000eb00f2
:10269400310098001e007800900890000008900017
:1026a4004809dd004800de0000007100c808de00b3
:1026b400800078001e007800310898001e00780021
:1026c40090089000000890004109dd004f00de00f2
:1026d40000007100cf08de00f21f2000030020007c
:1026e4000000510081805900a261280000004100cf
:1026f400104078000080fb00f10f200000805000a3
:102704004800dd00800078001e0078003108980041
:10271400000000001e00780090089000000890005f
:10272400800078001e007800210898001e007800c0
:1027340090089000000890004809dd004800de0081
:1027440000007100c808de00800078001e007800d8
:1027540021089800100020000080fa000000060004
:102764000200fa00000f78001e0078002008900094
:102774000080fa00000006000200fa00000f780052
:102784001e007800300890000080fa000000060067
:102794000400fa00000f7800110798001e0078006a
:1027a40020089000c800de001e0078004108980050
:1027b4001e007800200890000080fa000000060047
:1027c4000200fa00000f78001e007800100090004c
:1027d4000000e8004700dd008000eb001e017800e7
:1027e40040019800510198001e00780020009000dc
:1027f4000000e8004700dd008000eb001e017800c7
:1028040060019800710198000080fa000000060041
:102814000200fa00000f78001e0078008000eb0030
:10282400410898001e007800c00890001e0078003f
:10283400310898001e007800b00890001e0078004f
:10284400210898001e0178006000b8000009980073
:10285400110998001e007800e1042000110098007e
:102864001e007800b1012000210098001e007800ad
:10287400100090004000dd008000eb001e01780095
:1028840040019800510198001e007800200090003b
:102894004200dd008000eb001e017800600198001a
:1028a400710198000080fa00000006000200fa009e
:1028b400000f78001e007800100078000000e0008f
:1028c40008003a001e007800110020003100980032
:1028d4001e0178006000b8000009980011099800f2
:1028e400030037001e00780011002000310098001a
:1028f4000080fa00000006000200fa00000f7800d1
:102904001e00780010007800e10f500003003a0028
:102914001e00780041002000310098000080fa0079
:10292400000006002000fa00700f98007e08900056
:102934008000eb00210898007e0890003000900091
:10294400e20f500039003200e20f500005003e0053
:102954000000e00008003200e10f50000a003200dd
:1029640075003700e30f50004c003200e40f5000b4
:1029740050003200700037007e0890008000eb00a9
:10298400210898006c0037007e0890000009900030
:10299400900990007e089000d000900040009000c4
:1029a40002004000838048007e09900000099800de
:1029b400110998007e089000000990009009900089
:1029c400f0ff2f00f10f2000800f5100818f59007c
:1029d400540036007e089000100078000000e000eb
:1029e40009003a007e089000210020003100980080
:1029f4007e099000f0ff2f00f10f200000099800dd
:102a0400110998004c0037007e0890003100200026
:102a1400310098007e099000f0ff2f00f10f200094
:102a24000009980011099800430037007e089000bf
:102a340000099000900990007e089000f00090003a
:102a44006000900000005100818059007e099000d0
:102a540000099800110998007e0890000009900070
:102a6400900990007e089000f000900060009000b3
:102a7400800f5100818f59002c0031007e09900095
:102a84006000b80000099800110998007e089000c1
:102a94008000eb0031009800270037007e09900089
:102aa400f0ff2f00f10f2000000998001109980091
:102ab400210037007e0890000009900090099000e2
:102ac4007e089000f000900060009000000051002b
:102ad400818059007e09900000099800110998002e
:102ae4007e08900000099000900990007e089000f4
:102af400f000900060009000800f5100818f590019
:102b04000c0031007e0990006000b80000099800b4
:102b1400110998007e0890008000eb0031009800b5
:102b2400050037000000000003003700000000002b
:102b340001003700000000007e089000e0089000cb
:102b4400a0052000808f50000b003a007e08900002
:102b540090089000000890004809dd004800de005d
:102b640000007100c808de00800078007e08900034
:102b7400210898000b0237007e089000600890003e
:102b84000000e0001f003a007e08900090089000ca
:102b9400000890004008de00600f98006e08900066
:102ba40000004000600f9800a1a128006e0890006a
:102bb40000804000104078000080fb004800dd00e9
:102bc400800078007e08900021089800f11f200002
:102bd4006e08900000805000a1a1280000804000f1
:102be400104078000080fb00f10f200000805000ae
:102bf4004800dd00800078007e08900021089800dd
:102c0400e80137007e08900060089000e10f500052
:102c14000d003a007e089000900890000008900093
:102c2400c809dd004800de0000807100c808de002d
:102c34008000780000002c00808060007e089000f6
:102c440021089800d70137007e08900060089000a2
:102c5400e20f50003d003a007e0890000009900009
:102c640090099000028fbe007e0890000009900039
:102c740090099000e0ff2f00f1032000800f510025
:102c8400818f59000b003e001e0078009e009000ca
:102c9400ca09dd004600de0000807100c608de00bf
:102ca400008fbe009e0078007e08900021089800e6
:102cb4000b0037007e0890000009900090099000f6
:102cc400d0ff2f00f1072000800f5100818f5900a1
:102cd40003003e007e0890008000eb00210898006d
:102ce4007e0890000009900090099000c0ff2f001a
:102cf400f10b2000800f5100818f59000f003e001e
:102d04002000200001f82f001e0f40005e974800ad
:102d14001e0078009e0090004809dd004800de0097
:102d240000007100c808de00008fbe009e0078001d
:102d34007e089000210898009a0137007e089000d0
:102d44008000eb0021089800960137007e0890006f
:102d540060089000e30f50002e003a007e089000b7
:102d6400000990009009900022079800330798000a
:102d74007e0890000009900090099000e0ff2f0069
:102d8400f1072000800f5100818f590007003e0099
:102d94002e009000be00900000004000818048009a
:102da40020079800310798000e003700f2ff2f002b
:102db400f30f20002e009000be0090000000510090
:102dc4008180590020079800310798002e00900058
:102dd400be00900000004000818048002007980059
:102de400310798002e009000be009000c809dd0055
:102df4004800de0000807100c808de00200798004b
:102e040031079800ae0090007e08900021089800d9
:102e1400640137007e08900060089000e40f5000c1
:102e240064003a007e089000000990009009900028
:102e340042079800530798007e089000000990000c
:102e440090099000e0ff2f00f1032000800f510053
:102e5400818f59000c003e004e009000de0090006f
:102e6400ca09dd004600de0000807100c608de00ed
:102e74004007980051079800ce0090007e0890000b
:102e8400210898001b0037007e089000000990007c
:102e940090099000d0ff2f00f1072000800f51000f
:102ea400818f590013003e004e019000de01900016
:102eb4001000200001fc2f00020040008380480025
:102ec40040079800510798004e009000de009000e3
:102ed4004909dd004700de0000007100c708de007c
:102ee4004007980051079800ce0090007e0890009b
:102ef400210898007e089000000990009009900035
:102f0400c0ff2f00f10b2000800f5100818f59006a
:102f140014003e004e019000de01900020002000cd
:102f240001f82f0002004000838048004007980009
:102f3400510798004e009000de009000c809dd00a3
:102f44004800de0000807100c808de0040079800d9
:102f540051079800ce0090007e0890002108980048
:102f6400100137004e019000de0190003000200077
:102f740001f42f00020040008380480040079800bd
:102f8400510798004e009000de0090004709dd00d4
:102f94004900de0000007100c908de004007980007
:102fa40051079800ce0090007e08900021089800f8
:102fb400fc0037007e089000e008900030062000f6
:102fc400808f50006c003a007e0890000009900049
:102fd4009009900062079800730798007e0890009b
:102fe4000009900090099000e0ff2f00f1032000f9
:102ff400800f5100818f590014003e00f2ff2f0012
:10300400f30320006e009000fe00900000005100c9
:103014008180590060079800710798006e00900045
:10302400fe009000c809dd004800de000080710049
:10303400c808de006007980071079800ee00900051
:103044007e089000210898001b0037007e0890003d
:103054000009900090099000d0ff2f00f107200094
:10306400800f5100818f590013003e00e2ff2f00b2
:10307400f30720006e009000fe0090000000510055
:103084008180590060079800710798006e009000d5
:10309400fe0090004709dd004900de0000007100d9
:1030a400c908de006007980071079800ee009000e0
:1030b4007e089000210898007e0890000009900086
:1030c40090099000c0ff2f00f10b2000800f5100e9
:1030d400818f590014003e00d2ff2f00f30b200013
:1030e4006e009000fe0090000000510081805900a5
:1030f40060079800710798006e009000fe00900031
:10310400c609dd004a00de0000807100ca08de0046
:103114006007980071079800ee0090007e08900008
:10312400210898009f003700f2ff2f00f3032000ce
:103134006e009000fe009000000051008180590054
:1031440060079800710798006e009000fe009000e0
:103154004509dd004b00de0000007100cb08de00f5
:103164006007980071079800ee0090007e089000b8
:10317400210898008b0037007e08900060089000ba
:10318400e50f50002a003a007e08900000099000e4
:1031940090099000020f9800130f98007e08900089
:1031a4000009900090099000e0ff2f00f107200033
:1031b400800f5100818f590007003e000e089000d7
:1031c4009e0890000000400081804800000f980095
:1031d400110f98000a0037000e0990009e09900014
:1031e4001000200001f82f000200400083804800f6
:1031f4000000400081804800000f9800110f9800e3
:103204000e0890009e089000c809dd004800de000a
:1032140000807100c808de00000f9800110f9800ac
:103224008e0890007e089000210898005d00370009
:103234007e08900060089000e60f500027003a00d6
:103244006000b800200f9800310f98007e089000ad
:103254000009900090099000e0ff2f00f10f20007a
:10326400800f5100818f590009003e007e089000b4
:103274009008900000089000f2ff2f00f30f200048
:103284000000510081805900200f9800310f9800f0
:10329400ae0890007e089000210898002e08900047
:1032a400be0890004809dd004800de0000007100ff
:1032b400c808de00800078007e089000210898008d
:1032c4007e089000a008900000002c008080600020
:1032d4007e08900021089800320037007e08900094
:1032e40060089000e70f50001e003a006000b8002c
:1032f400400f9800510f98007e089000000990003c
:1033040090099000e0ff2f00f10f2000800f510082
:10331400818f590009003e007e08900090089000bb
:1033240000089000f2ff2f00f30f2000000051006e
:1033340081805900400f9800510f98004e0890006a
:10334400de089000c809dd004800de00008071003e
:10335400c808de00800078007e08900021089800ec
:10336400100037007e08900090089000000890003c
:10337400800078007e089000210898007e08900064
:1033840090089000000890004809dd004800de0025
:1033940000007100c808de00800078007e089000fc
:1033a40021089800100020000080fa0000000600a8
:1033b4000200fa00000f78001e0078002008900038
:1033c4000080fa00000006000400fa00000f7800f4
:1033d400110798001e00780020089000c800de0045
:1033e4001e007800310898001e0078002008900024
:1033f4000080fa00000006000200fa00000f7800c6
:103404001e007800100090000000e8004700dd0076
:103414008000eb001e0178004001980051019800e3
:103424001e007800200090000000e8004700dd0046
:103434008000eb001e017800600198007101980083
:103444000080fa00000006000000fa00f0b48000da
:10345400e10f500003003a009e36ef00910307008d
:10346400020007000080fa00000006003400fa00a1
:10347400889fbe00b17080000000280000806000ba
:103484000000e0000300320010002000d0b38800e8
:10349400010037007a36ef00b1708000000021008f
:1034a400008060000000e000020032008436ef007b
:1034b400020037001000200020b48800b1708000a2
:1034c40000002400008060000000e00003003a00d7
:1034d40040002000f0b588000a003700b170800079
:1034e40000002200008060000000e00003003a00b9
:1034f40010002000f0b588000200370020002000f2
:10350400f0b5880060b480000000e00003003a00d9
:103514001000200040b488000700370060b4800029
:10352400e10f500002003a008836ef000200370035
:103534002000200040b4880000b680000000e000b5
:1035440002003a003e36ef0002003700100020006f
:10355400f0b188005c36ef0060b580004200de0008
:10356400f10f200000805000800040000020210066
:1035740000804000900078003107980060b580001a
:103584004200de00f10f2000008050008000400067
:10359400004021000080400010017800420798009c
:1035a4003e009000c800dd004e0090000080400006
:1035b4008000eb0050b0880061b0880070b58000d6
:1035c4004700de006700100070b0880030b680004d
:1035d40030b68000e40f50000200360040002000a6
:1035e40030b6880020b580004200de00f10f2000d4
:1035f40000805000500798005e009000800040005a
:10360400a0e1280000804000100078008000eb005a
:10361400c001dd00020020005e0090008000400038
:10362400a0c1280000804000100078008000eb005a
:10363400020040008380480030b2880041b2880014
:1036440030b580004200de00f10f20000080500001
:10365400500798005e00900080004000a0e1280020
:1036640000804000100078008000eb00c001dd0005
:10367400020020005e00900080004000a0c12800ed
:1036840000804000100078008000eb000200400041
:103694008380480050b2880061b288000000eb00cb
:1036a400500798005e00900080004000a0e12800d0
:1036b40000804000100078008000eb00c001dd00b5
:1036c400020020005e00900080004000a0c128009d
:1036d40000804000100078008000eb0002004000f1
:1036e4008380480020b3880031b3880020b580006f
:1036f4004200de00f10f20000080500050079800c7
:10370400f10f20005e0090000080500050079800e8
:103714005e00900080004000a0e12800008040008e
:10372400100078008000eb00c001dd0002002000e2
:103734005e00900080004000a0c12800008040008e
:10374400100078008000eb000200400083804800f5
:1037540040b3880051b3880030b48000e10f5000ba
:1037640005003200e10f500003013900e20f500060
:10377400f90032000301370040b480000000e0008b
:103784006a003a0010002000e0b3880020b58000f1
:10379400f13f2000008050004700de0060079800e1
:1037a4006e009000e30f50002c003200e30f500035
:1037b40005003e00e10f500017003200e10f5000f9
:1037c4001e003e0009003700e50f500035003200ae
:1037d400e50f50002a003900e60f50003a0032008d
:1037e400e70f5000410032004b0037003236ef0043
:1037f4007e36ef0050b0800061b08000ce09dd005d
:103804004200de0000807100c208de0040b1880082
:1038140051b18800400037003236ef007e36ef00a9
:1038240050b0800061b080008100d1000080d300de
:1038340040b1880051b18800370037003236ef00bc
:1038440010002000f0b3880050b0800061b0800008
:1038540040b1880051b188002f003700a005200036
:1038640090b1880010002000f0b3880050b08000b0
:1038740061b0800040b1880051b188002600370053
:10388400400b200090b1880010002000f0b38800a5
:1038940050b0800061b0800040b1880051b1880010
:1038a4001d003700e010200090b1880010002000b7
:1038b400f0b3880050b0800061b0800040b188004f
:1038c40051b18800140037003236ef007e36ef0025
:1038d40050b0800061b0800000004000818048004a
:1038e40040b1880051b188000b0037003236ef0038
:1038f4007e36ef0052b0800063b080004218dd00d5
:10390400ce10de00810070004210dd0040b188005e
:1039140051b188000000000030b580004700de008f
:103924006700100060b188009600370040b4800042
:10393400e10f50001e003a007c36ef0020b58000f5
:103944004200de00f10f20000080500080004000a3
:1039540000202100008040001003780076079800c2
:1039640020b580004200de00f10f200000805000ee
:10397400800040000040210000804000900078005a
:10398400010f98007e009000c800dd000e08900032
:10399400008040008000eb0040b1880051b18800f5
:1039a40030b580004700de0060b188007500370044
:1039b40010002000e0b3880020b58000f13f200013
:1039c400008050004700de00100f98001e08900091
:1039d400e30f50002c003200e30f500005003e00be
:1039e400e10f500017003200e10f50001e003e00ae
:1039f40009003700e50f500035003200e50f500094
:103a04002a003900e60f50003a003200e70f500058
:103a1400410032004b0037003236ef007e36ef00b3
:103a240050b0800061b080004e09dd004200de002d
:103a340000007100c208de0040b1880051b1880066
:103a4400400037003236ef007e36ef0050b0800081
:103a540061b080008100d1000080d30040b18800b3
:103a640051b18800370037003236ef0010002000d3
:103a7400f0b3880050b0800061b0800040b188008d
:103a840051b188002f003700a005200090b18800b4
:103a940010002000f0b3880050b0800061b08000b6
:103aa40040b1880051b1880026003700400b200047
:103ab40090b1880010002000f0b3880050b080005e
:103ac40061b0800040b1880051b188001d0037000a
:103ad400e010200090b1880010002000f0b38800ae
:103ae40050b0800061b0800040b1880051b18800be
:103af400140037003236ef007e36ef0050b08000fd
:103b040061b08000000040008180480040b188001e
:103b140051b188000b0037003236ef007e36ef00db
:103b240052b0800063b080004218dd00ce10de0089
:103b3400810070004210dd0040b1880051b188005e
:103b44000000000030b580004700de006f00100068
:103b540060b188000b00370040b48000e20f5000d1
:103b640007003a0030b580004700de00670010000f
:103b7400c0b38800030037000000000001003700d4
:103b84000000000020602100b9020700006221004b
:103b9400c6020700e0b38000e10f500007003a00be
:103ba400f0b38000e10f500004003a0030b0800010
:103bb40041b0800020b1880031b18800e063210069
:103bc400edf90700e0632100e5fa0700200f9800f3
:103bd400c065210053fb070030b480000000e00002
:103be40011003a0040b480000000e00005003a00f3
:103bf4001000200070b488001000200000b6880077
:103c04001600370040b48000e10f500004003a0071
:103c14001000200070b48800c036ef000f00370099
:103c24008e36ef000d00370030b48000e20f5000f4
:103c34000a003a0040b480000000e00003003a00ab
:103c44001000200000b688000400370040b4800053
:103c5400e10f500001003a00c036ef0062b6800068
:103c640073b68000320f9800430f9800f0b58000bf
:103c7400e10f50001b003a00d0b580000000e000c6
:103c84000c003a003e089000ce089000e00f50006f
:103c9400e08f5800f0003d0010002000d0b58800ef
:103ca4001000200010b48800028ea800174ea8004f
:103cb400e90037003e099000ce099000e0ff2f0094
:103cc400f1ff2700800f5100818f5900e2003e0070
:103cd400ba36ef008236ef00028ea900174ea90013
:103ce400dd003700f0b58000e20f500042003a00da
:103cf400d0b58000e10f500015003200e10f5000f4
:103d040005003900e20f50001c003200e30f5000a0
:103d140028003200330037003e099000ce0990009d
:103d2400f0ff2f00f1ff2300800f5100818f590015
:103d3400b200360010002000d0b58800100020002a
:103d440010b48800028ea800174ea800c2003700e5
:103d54003e089000ce089000e00f5000e08f58001d
:103d6400a8003d0020002000d0b588008236ef0076
:103d7400028ea900174ea900b70037003e09900033
:103d8400ce099000d0ff2f00f1ff2b00800f5100cf
:103d9400818f59009d00360030002000d0b5880086
:103da4001000200010b48800028ea800174ea8004e
:103db400a90037003e099000ce099000e0ff2f00d3
:103dc400f1ff2300800f5100818f590091003e00c4
:103dd400ba36ef008236ef00028ea900174ea90012
:103de4009d003700ba36ef008236ef00028ea9003c
:103df400174ea90098003700f0b58000e40f50007a
:103e040095003a00d0b58000e30f5000390032002d
:103e1400e30f500005003e00e10f50001a0032008d
:103e2400e10f500025003e0009003700e50f500067
:103e34004b003200e50f50003b003900e60f500004
:103e440054003200e70f5000600032008200370057
:103e54003e099000ce099000f0ff2f00f1ff2100f1
:103e6400800f5100818f59006c0036001000200033
:103e7400d0b588001000200010b48800028ea8007d
:103e8400174ea800740037003e099000ce09900038
:103e9400e0ff2f00f1ff2300800f5100818f5900b4
:103ea4006000360020002000d0b588008236ef0084
:103eb400028ea900174ea900670037003e09900042
:103ec400ce099000d0ff2f00f1ff2500800f510094
:103ed400818f59005500360030002000d0b588008d
:103ee4001000200010b48800028ea800174ea8000d
:103ef400590037003e099000ce099000c0ff2f0002
:103f0400f1ff2700800f5100818f590049003600ce
:103f140040002000d0b588008236ef00028ea90050
:103f2400174ea9004c0037003e099000ce099000be
:103f3400b0ff2f00f1ff2900800f5100818f59003d
:103f44003e00360050002000d0b58800100020004c
:103f540010b48800028ea800174ea8003e00370057
:103f64003e099000ce099000a0ff2f00f1ff2b0026
:103f7400800f5100818f590032003600600020000c
:103f8400d0b588008236ef00028ea900174ea90032
:103f9400310037003e099000ce09900090ff2f00b9
:103fa400f1ff2d00800f5100818f5900270036004a
:103fb40070002000d0b588001000200010b48800e4
:103fc400028ea800174ea800230037003e09900077
:103fd400ce099000e0ff2f00f1ff2100800f510077
:103fe400818f59001b003e00ba36ef008236ef0085
:103ff400028ea900174ea900170037000000000028
:104004001500370000000000130037000000000016
:1040140011003700000000000f003700000000000e
:104024000d003700000000000b0037000000000006
:1040340009003700000000000700370000000000fe
:1040440005003700000000000300370000000000f6
:10405400010037000000000080b080004400de0052
:10406400000f78000000eb001007980030b48000c7
:104074000000e00045003a0070b48000e10f5000f9
:104084003a003a00e0b580000000e00017003a0072
:1040940080b080006101b8002e0890008000eb0021
:1040a400809ab900828bb90086027800050242002a
:1040b4000010b80001024200840078004008de00cd
:1040c40001002000500f9800610f98005e089000d6
:1040d400ee0890004c09dd004400de000000710091
:1040e400c408de00000f78002000370081b0800093
:1040f4001000280000804000700f98002e089000e7
:104104006101b8007e089000cf80de00809ab9007b
:10411400828bb90086027800050242000010b800c4
:1041240001024200840078000017980011179800db
:1041340000179800111798000e1090009e10900020
:10414400408cde00cf8cde002817980039179800c9
:10415400ae109000f0ff2700008040004017980048
:104164004e1090004400de00000f78002e089000ee
:104174004400de0050179800f1ff20005e1090000c
:1041840000805000100798003500370030b48000dc
:10419400e10f500006003a0070b180004400de00d8
:1041a400f1ff200000805000100798002c00370019
:1041b40030b48000e20f500029003a0040b480007f
:1041c400e20f50000e003a00c065210078fc0700a1
:1041d4004400de0060179800f1ff20006e1090008c
:1041e40000805000100798006e1090000000d1006d
:1041f400018020000080500010079800180037004c
:1042040010002000701798000000eb0020079800b1
:104214007e1090000000e00007003a00e0632100f7
:104224004ff90700001f98000e1890004400de00ac
:104234002007980006003700e06321004ef90700cc
:10424400101f98001e1890004400de0020079800fc
:10425400f1ff20002e00900000805000100798000d
:1042640020b480000000e00005003a009e007800c1
:1042740051b688001e019000a2b4880004003700e3
:104284009e01900053b688001e037800a6b48800ef
:1042940030080700490807004f04be000080fa00f8
:1042a400000006000000fa0000b080000000e000fa
:1042b40015003a00b0708000700060000000e0005b
:1042c4001b003a0040b68000e10f50000b003a009a
:1042d400e06321000af80700c065210073f90700b4
:1042e400d0b38000e10f500004003a0020602100a8
:1042f400d100070000622100cf0007001000200059
:1043040000b088000a003700b070800070006000c0
:104314000000e0000600320040b68000e10f5000cb
:1043240002003a00e063210008f807000036ef00bd
:104334000080fa00000006000000fa00213a800024
:10434400f0f32f0000806000203a8800313a8000aa
:1043540000e02f0000806000e001b300303a8800e4
:10436400213a800000fe2f0000806000203a88007f
:104374004027ef000080fa00000006000200fa0067
:10438400000f78001021ef0081088000f0fc2f005e
:1043940000806000800888001e007800c1032000af
:1043a400810f50000900320001052000810f5000e8
:1043b4000900320081022000810f500009003a00f8
:1043c400f03f20006008880008003700f03f20001c
:1043d4006008880005003700f07f2000600888002e
:1043e40002003700f03f20006008880000e8a900c0
:1043f40020e8a8000080fa00000006000000fa008f
:10440400cdff0700222eef0010718000707088002d
:10441400142eef00a070800000708800182eef00aa
:10442400c0708000207088001c8ea8002268a8003c
:104434000268a90000052000d0ff070020602100c9
:10444400750007000062210073000700e06321008b
:1044540080f70700c0652100edf807000001eb00bc
:104464008000eb000000eb0063f70700f0ff200082
:1044740050b68800028ea800b6070700028ea80076
:10448400ca36ef00b3070700028ea900f0ff200030
:1044940050b68800af070700ca36ef00ad07070023
:1044a400f07f200050b68800aa070700f0ff200024
:1044b40050b68800a7070700ca36ef00a507070013
:1044c400f0ff200050b68800a2070700ca36ef00ac
:1044d400a0070700f07f200050b688009d07070062
:1044e400f0ff2000a0b48800b40707009436ef0062
:1044f400b2070700f0ff2000a0b48800af07070050
:104504009436ef00ad070700f07f2000a0b48800c8
:10451400aa070700f0ff2000a0b48800a70707003f
:10452400ca36ef00a5070700f0ff2000a0b48800fa
:10453400a20707009436ef00a0070700f07f2000d1
:10454400a0b488009d070700bff607001f6ea800ef
:104554001faea800f07080004d00de0061406000d6
:104564000080fb00610060004c00dd00f170800001
:1045740001c0a10001007000f07088001feea800c7
:10458400f07080004f00de00004078000080fb00e7
:10459400610060004e00dd00f170800001e0a100c8
:1045a40001007000f0708800156ea80015eea800d8
:1045b400a07080004f00de00004078000080fb0007
:1045c400610060004e00dd00a170800001e0a100e8
:1045d40001007000a070880015aea800a0708000d3
:1045e4004d00de00614060000080fb00610060005f
:1045f4004c00dd00a170800001c0a100010070002a
:10460400a0708800154ea900148ea80011e1a8001e
:104614008dfb0700feff37000200fa00000f780050
:104624001e01780000002f00f1ff2f000089be005a
:104634000080fa00000006000200fa00000f780073
:104644001e0178006000b800200198003101980034
:104654001e00780011002000310898001e00780028
:104664008000eb00410898000080fa00000006007a
:104674000200fa00000f78001e0078000b0007000b
:104684001e007800100178009001900060b6800050
:1046940071b68000020040008380480060b6880044
:1046a40071b688000080fa00000006002400fa00b9
:1046b400101798001e10900040019000d001900047
:1046c4004818dd00c810de00810070004810dd00cd
:1046d4001e1190000089be001e1090002001900061
:1046e400b00190001e10900090009000100078001f
:1046f40002004000838048001e11900020019800b1
:10470400310198001e1090008000eb0021089800f1
:104714001e10900020019000b00190001e10900027
:104724009000900010007800800f5100818f590094
:10473400030031001e109000110020002108980091
:104744001e10900020019000b00190001e109000f7
:104754009000900010007800020040008380480020
:1047640070079800010f98007e0190008e09900058
:104774001e1090009000900010007800800f5100ef
:10478400818f5900030031001e1090008000eb005f
:10479400210898001e109000e0009000010f78009e
:1047a4001e10900060089000e10f500002003a00d3
:1047b4001e017800680f41001e1090002001900037
:1047c400b001900012079800230798001e10900073
:1047d40090089000a0052000808f500009003a0046
:1047e4001e019000ae019000000020000100240092
:1047f40002004000838048001007980021079800b9
:104804001b0037001e10900090089000400b200001
:10481400808f500009003a001e019000ae01900004
:1048240000002000010028000200400083804800ae
:1048340010079800210798000d0037001e10900003
:1048440090089000e0102000808f500008003a008b
:104854001e019000ae0190000000200001002c0019
:104864000200400083804800100798002107980048
:104874001e0078008000eb00520620000300200098
:10488400820f5000838f5800de023e0000060100b4
:104894009a003700640037006a0037007f00370051
:1048a40071003700a400370068023700790237002e
:1048b400e70037006e0237008102370047023700f5
:1048c4001e0137006e01370092013700e201370004
:1048d40086023700cb023700ca023700c90237000c
:1048e400c8023700c7023700c6023700c5023700c6
:1048f400c4023700c3023700c2023700c1023700c6
:10490400c0023700bf023700be023700bd023700c5
:10491400bc023700bb023700ba023700b9023700c5
:10492400b8023700b7023700b6023700b5023700c5
:10493400b4023700b3023700b2023700b1023700c5
:10494400b0023700af023700ae023700ad023700c5
:10495400ac023700ab023700aa023700a9023700c5
:10496400a8023700a7023700a6023700a5023700c5
:10497400a4023700a3023700a2023700a1023700c5
:10498400a00237009f0237009e0237009d023700c5
:104994009c0237009b0237009a02370099023700c5
:1049a40098023700970237009602370095023700c5
:1049b40094023700930237009202370091023700c5
:1049c400900237008f0237008e0237008d023700c5
:1049d4008c0237008b0237008a02370089023700c5
:1049e40088023700870237008602370085023700c5
:1049f4005b023700830237008202370081023700ee
:104a0400800237007f0237007e0237007d023700c4
:104a14007c0237007b0237007a02370079023700c4
:104a2400780237005b0237001e009000ae00900051
:104a34004008de00800078001e109000710098008d
:104a4400760237001e009000ae0090000080ea005d
:104a54008180ea004008de00800078001e1090008b
:104a6400710098006d0237001e009000ae009000a7
:104a7400e00f5000e08f580004003d001e1090002d
:104a84008080eb0071009800640237001e109000d3
:104a94008000eb0071009800600237001e01900056
:104aa400ae01900032079800430798001e00900062
:104ab400ae009000e00f5000e08f580006003d006b
:104ac4003e009000ce0090000080ea008180ea0061
:104ad40030079800410798003e009000ce009000f7
:104ae40000004000818048004008de00800078001b
:104af4001e10900071009800480237001e009000bc
:104b0400ae0090004808de00100f98001e089000c8
:104b140080004000000021000080400090017800e7
:104b2400230f98002e089000c800dd001e1090008e
:104b340071009800390237001e019000ae01900008
:104b4400e0ff2f00f1ff2700800f5100818f5900f3
:104b540010003e001e009000ae0090004808de00e9
:104b6400300f98003e089000000040008000400094
:104b7400000021000080400090007800410f980060
:104b84004e089000c800dd001e10900071009800cf
:104b9400220237001e019000ae019000d0ff2f00ca
:104ba400f1ff2b00800f5100818f590014003e004b
:104bb4001e019000ae0190001000200001002800aa
:104bc40002004000838048004808de00500f98002f
:104bd4005e0890004200dd008000400000002100db
:104be4000080400010017800620f98006e08900069
:104bf400c800dd001e109000710098000702370005
:104c04001e019000ae01900020002000010024004d
:104c140002004000838048004808de00700f9800be
:104c24007e0890004200dd0080004000000021006a
:104c34000080400090017800031798000e10900047
:104c4400c800dd001e10900071009800f3013700c9
:104c54001e019000ae019000e0ff2f00f1ff230041
:104c6400800f5100818f590004003e001e109000f7
:104c74008080eb0071009800e80137001e0190006d
:104c8400ae019000e0ff2f00f1ff2700800f5100dc
:104c9400818f590004003e001e1090008000eb003c
:104ca40071009800dd0137001e019000ae019000f4
:104cb400e0ff2f00f1ff2900800f5100818f590080
:104cc40004003e001e1090008080eb0071009800ec
:104cd400d20137001e019000ae019000e0ff2f00ca
:104ce400f1ff2b00800f5100818f590004003e001a
:104cf4001e1090008000eb0071009800c70137007f
:104d04001e019000ae019000e0ff2f00f1ff2d0086
:104d1400800f5100818f590004003e001e10900046
:104d24008080eb0071009800bc0137001e109000d9
:104d34008000eb0071009800b80137001e0190005c
:104d4400ae019000e0ff2f00f1ff2100800f510021
:104d5400818f590004003e001e1090008080eb00fb
:104d640071009800ad0137001e019000ae01900063
:104d7400e0ff2f00f1ff2300800f5100818f5900c5
:104d840004003e001e1090008000eb0071009800ab
:104d9400a20137001e019000ae019000e0ff2f0039
:104da400f1ff2500800f5100818f590004003e005f
:104db4001e10900001002c0071009800970137002c
:104dc4001e019000ae019000e0ff2f00f1ff2700cc
:104dd400800f5100818f590004003e001e10900086
:104de40001002400710098008c0137001e0190001e
:104df400ae019000e0ff2f00f1ff2900800f510069
:104e0400818f590004003e001e10900001002c0008
:104e140071009800810137001e019000ae019000de
:104e2400e0ff2f00f1ff2b00800f5100818f59000c
:104e340004003e001e109000010024007100980040
:104e4400760137001e019000ae019000e0ff2f00b4
:104e5400f1ff2d00800f5100818f590004003e00a6
:104e64001e10900001002c00710098006b013700a7
:104e74001e109000010024007100980067013700a3
:104e84001e019000ae019000e0ff2f00f1ff23000f
:104e9400800f5100818f590004003e001e109000c5
:104ea4008080eb00710098005c0137001e019000c7
:104eb400ae019000e0ff2f00f1ff2700800f5100aa
:104ec400818f590004003e001e1090008000eb000a
:104ed40071009800510137001e019000ae0190004e
:104ee400e0ff2f00f1ff2b00800f5100818f59004c
:104ef40004003e001e10900001002c007100980078
:104f0400460137001e109000010024007100980033
:104f1400420137001e019000ae019000e0ff2f0017
:104f2400f1ff2100800f5100818f590004003e00e1
:104f34001e1090008080eb0071009800370137004c
:104f44001e019000ae019000e0ff2f00f1ff23004e
:104f5400800f5100818f590004003e001e10900004
:104f64008000eb00710098002c0137001e019000b6
:104f7400ae019000e0ff2f00f1ff2500800f5100eb
:104f8400818f590004003e001e109000f1ff2d0097
:104f940071009800210137001e019000ae019000bd
:104fa400e0ff2f00f1ff2700800f5100818f59008f
:104fb40004003e001e1090000100220071009800c1
:104fc400160137001e019000ae019000e0ff2f0093
:104fd400f1ff2900800f5100818f590004003e0029
:104fe4001e109000f1ff2b00710098000b01370098
:104ff4001e019000ae019000e0ff2f00f1ff2b0096
:10500400800f5100818f590004003e001e10900053
:105014000100240071009800000137001e01900077
:10502400ae019000e0ff2f00f1ff2d00800f510032
:10503400818f590004003e001e109000f1ff2900ea
:1050440071009800f50037001e1090000100260042
:1050540071009800f10037001e019000ae0190002d
:10506400e0ff2f00f1ff2100800f5100818f5900d4
:1050740008003e001e009000ae0090004008de00d4
:10508400000078008080ea001e10900071009800f3
:10509400e20037001e019000ae019000e0ff2f00f7
:1050a400f1ff2300800f5100818f590004003e005e
:1050b4001e1090008000eb0071009800d7003700ac
:1050c4001e019000ae019000e0ff2f00f1ff2500cb
:1050d400800f5100818f590008003e001e0090008f
:1050e400ae0090004008de00000078008080ea00f6
:1050f4001e10900071009800c80037001e01900037
:10510400ae019000e0ff2f00f1ff2700800f510057
:10511400818f590004003e001e1090008000eb00b7
:1051240071009800bd0037001e019000ae01900090
:10513400e0ff2f00f1ff2900800f5100818f5900fb
:1051440008003e001e009000ae0090004008de0003
:10515400000078008080ea001e1090007100980022
:10516400ae0037001e019000ae019000e0ff2f005a
:10517400f1ff2b00800f5100818f590004003e0085
:105184001e1090008000eb0071009800a30037000f
:105194001e019000ae019000e0ff2f00f1ff2d00f2
:1051a400800f5100818f590008003e001e009000be
:1051b400ae0090004008de00000078008080ea0025
:1051c4001e10900071009800940037001e1090008b
:1051d4008000eb0071009800900037001e019000e1
:1051e400ae0190000000200001002c0002027800b3
:1051f4000301780080017800010078000302620056
:10520400000061008000eb00c000dd000000200011
:105214000001be006120b8000001710081817100ad
:10522400e00f5100e08f5900040032001e1090007e
:105234008080eb0071009800780037001e10900009
:105244008000eb0071009800740037001e0090008d
:10525400ae0090004008de008000780000002e00c0
:10526400808060001e109000710098006b00370071
:105274001e009000ae0090004008de008000780020
:1052840000002c00808060001e10900071009800c7
:10529400620037001e009000ae0090000080ea001b
:1052a4008180ea004008de008000780000002e00c3
:1052b400808060001e109000710098005700370035
:1052c4001e009000ae0090000080ea008180ea0099
:1052d4004008de008000780000002c008080600020
:1052e4001e109000710098004c0037001e019000c1
:1052f400ae01900052079800630798001e009000ca
:10530400ae009000e00f5000e08f580006003d0012
:105314005e009000ee0090000080ea008180ea00c8
:1053240050079800610798005e009000ee0090001e
:1053340000004000818048004008de0080007800c2
:105344001e109000710098001e10900070009000d4
:105354008080ea001e109000710098002f00370032
:105364001e009000ae009000e00f5000e08f580047
:1053740004003d001e1090008000eb0071009800b6
:10538400260037001e1090008080eb00710098000a
:10539400220037001e019000ae01900000002000a2
:1053a40001002c00020278000301780080017800db
:1053b4000100780003026200000061008000eb003d
:1053c400c000dd00000020000001be006120b80024
:1053d4000001710081817100e00f5100e08f5900dc
:1053e400040032001e1090008000eb007100980051
:1053f4000a0037001e1090008080eb0071009800b6
:10540400060037001e009000ae0090004008de0049
:10541400800078001e109000710098000080fa004f
:10542400000006001600fa00200f98002e089000d5
:10543400300890000000e00004003a002e089000bc
:105444008000eb0071009800a90137002e0890003d
:10545400d00090004000900002f421008289b9003d
:10546400e002b900840178000301410003f4210043
:105474000300b80001014100820078000004b0007c
:105484000180b0002e0990000089be002e08900013
:1054940020019000b00190002e0890009000900030
:1054a4001000780002004000838048002e0990001c
:1054b40020019800310198002e0890008000eb0034
:1054c400210898002e08900020019000b00190005f
:1054d4002e0890009000900010007800800f51007a
:1054e400818f5900140031002e0890001100200013
:1054f400210898002e089000400890008000e800e1
:105504002e089000410898002e089000c0089000d2
:105514002e08900050089000808f500006003a003a
:105524002e0890008000eb00410898002e0890009f
:105534008000eb00310898002e0890006000900075
:105544006101b8000080eb008080eb0002004000a5
:10555400838048004206200003002000820f500090
:10556400838f58005b013e0000060100a200370053
:10557400c3003700a8003700cb00370055013700bf
:10558400f4003700fd0037005201370051013700a5
:1055940050013700d20037004e0137004d0137006b
:1055a4004c0137004b013700000137004901370037
:1055b40048013700470137004601370045013700ed
:1055c40044013700430137004201370041013700ed
:1055d400400137003f0137003e0137003d013700ed
:1055e4003c013700460037003a01370039013700e3
:1055f40038013700370137003601370035013700ed
:1056040034013700330137003201370031013700ec
:10561400300137002f0137002e0137002d013700ec
:105624002c0137002b0137002a01370029013700ec
:1056340028013700270137002601370025013700ec
:1056440024013700230137002201370021013700ec
:10565400200137001f0137001e0137001d013700ec
:105664001c0137001b0137001a01370019013700ec
:1056740018013700170137001601370015013700ec
:1056840014013700130137001201370011013700ec
:10569400100137000f0137000e0137000d013700ec
:1056a4000c0137000b0137000a01370009013700ec
:1056b40008013700070137000601370005013700ec
:1056c4000401370003013700d70037000101370018
:1056d40000013700ff003700fe003700fd003700ef
:1056e400fc003700fb003700fa003700f9003700f0
:1056f400f8003700f7003700f6003700d80037000d
:105704002e089000400890000000e00018003a00c5
:105714002e08900020019000b0019000028fbe007e
:105724002e089000b000900020009000e00f500080
:10573400e08f580005003d001e0078009e00900098
:105744000080ea008180ea00008fbe001e0078001d
